:020000020000FC
:100000004D6F6973747572652053656E736F7200FE
:1000100053656374696F6E20432043532D32320061
:100020002020202020484947480020202020204C24
:100030004F5720000F931F9307E610E00093C40072
:100040001093C50008E10093C10006E00093C200D0
:100050001F910F91549A559A569A579A209A219A1D
:10006000259A0F9301E05F985E985D985C9807FD74
:100070005F9A06FD5E9A05FD5D9A04FD5C9A2898DC
:10008000299A2F938F939F9321E08EE39CE9019708
:10009000F1F72A95D1F700009F918F912F91299820
:1000A0005F985E985D985C9803FD5F9A02FD5E9A8A
:1000B00001FD5D9A00FD5C9A299A2F938F939F937F
:1000C00021E08EE39CE90197F1F72A95D1F7000032
:1000D0009F918F912F9129985F985E985D985C9879
:1000E0000F910F9308E25F985E985D985C9807FD0A
:1000F0005F9A06FD5E9A05FD5D9A04FD5C9A28985C
:10010000299A2F938F939F9321E08EE39CE9019787
:10011000F1F72A95D1F700009F918F912F9129989F
:100120005F985E985D985C9803FD5F9A02FD5E9A09
:1001300001FD5D9A00FD5C9A299A2F938F939F93FE
:1001400021E08EE39CE90197F1F72A95D1F70000B1
:100150009F918F912F9129985F985E985D985C98F8
:100160000F910F930CE05F985E985D985C9807FD87
:100170005F9A06FD5E9A05FD5D9A04FD5C9A2898DB
:10018000299A2F938F939F9321E08EE39CE9019707
:10019000F1F72A95D1F700009F918F912F9129981F
:1001A0005F985E985D985C9803FD5F9A02FD5E9A89
:1001B00001FD5D9A00FD5C9A299A2F938F939F937E
:1001C00021E08EE39CE90197F1F72A95D1F7000031
:1001D0009F918F912F9129985F985E985D985C9878
:1001E0000F912D982F938F939F9322E38EE39CE999
:1001F0000197F1F72A95D1F700009F918F912F91E8
:100200002D9AE0E0F0E04FE00F931F934F9305919C
:100210004030D9F15F985E985D985C9807FD5F9AD1
:1002200006FD5E9A05FD5D9A04FD5C9A289A299A5E
:100230002F938F939F9321E08EE39CE90197F1F731
:100240002A95D1F700009F918F912F9129985F985F
:100250005E985D985C9803FD5F9A02FD5E9A01FDD1
:100260005D9A00FD5C9A299A2F938F939F9321E0CA
:100270008EE39CE90197F1F72A95D1F700009F9151
:100280008F912F9129984A95C2CF0F930CE05F98D8
:100290005E985D985C9807FD5F9A06FD5E9A05FD85
:1002A0005D9A04FD5C9A2898299A2F938F939F93C7
:1002B00021E08EE39CE90197F1F72A95D1F7000040
:1002C0009F918F912F9129985F985E985D985C9887
:1002D00003FD5F9A02FD5E9A01FD5D9A00FD5C9A46
:1002E000299A2F938F939F9321E08EE39CE90197A6
:1002F000F1F72A95D1F700009F918F912F912998BE
:100300005F985E985D985C980F914F911F910F9147
:100310000F9300EC5F985E985D985C9807FD5F9A7C
:1003200006FD5E9A05FD5D9A04FD5C9A2898299A5F
:100330002F938F939F9321E08EE39CE90197F1F730
:100340002A95D1F700009F918F912F9129985F985E
:100350005E985D985C9803FD5F9A02FD5E9A01FDD0
:100360005D9A00FD5C9A299A2F938F939F9321E0C9
:100370008EE39CE90197F1F72A95D1F700009F9150
:100380008F912F9129985F985E985D985C980F9156
:10039000E0E1F0E04FE00F931F934F930591403061
:1003A000D9F15F985E985D985C9807FD5F9A06FDAD
:1003B0005E9A05FD5D9A04FD5C9A289A299A2F930E
:1003C0008F939F9321E08EE39CE90197F1F72A95A3
:1003D000D1F700009F918F912F9129985F985E9897
:1003E0005D985C9803FD5F9A02FD5E9A01FD5D9A3F
:1003F00000FD5C9A299A2F938F939F9321E08EE3BF
:100400009CE90197F1F72A95D1F700009F918F9110
:100410002F9129984A95C2CF0F930CE05F985E9870
:100420005D985C9807FD5F9A06FD5E9A05FD5D9AF2
:1004300004FD5C9A2898299A2F938F939F9321E02B
:100440008EE39CE90197F1F72A95D1F700009F917F
:100450008F912F9129985F985E985D985C9803FD25
:100460005F9A02FD5E9A01FD5D9A00FD5C9A299AF1
:100470002F938F939F9321E08EE39CE90197F1F7EF
:100480002A95D1F700009F918F912F9129985F981D
:100490005E985D985C980F914F911F910F912F93EB
:1004A0008F939F9329E18EE39CE90197F1F72A95B9
:1004B000D1F700009F918F912F912F938F939F934E
:1004C00029E18EE39CE90197F1F72A95D1F7000025
:1004D0009F918F912F912F938F939F9329E18EE37B
:1004E0009CE90197F1F72A95D1F700009F918F9130
:1004F0002F912F938F939F9329E18EE39CE901978E
:10050000F1F72A95D1F700009F918F912F912F93AA
:100510008F939F9329E18EE39CE90197F1F72A9548
:10052000D1F700009F918F912F912F938F939F93DD
:1005300029E18EE39CE90197F1F72A95D1F70000B4
:100540009F918F912F912F938F939F9329E18EE30A
:100550009CE90197F1F72A95D1F700009F918F91BF
:100560002F912F938F939F9329E18EE39CE901971D
:10057000F1F72A95D1F700009F918F912F912F933A
:100580008F939F9329E18EE39CE90197F1F72A95D8
:10059000D1F700009F918F912F912F938F939F936D
:1005A00029E18EE39CE90197F1F72A95D1F7000044
:1005B0009F918F912F912F938F939F9329E18EE39A
:1005C0009CE90197F1F72A95D1F700009F918F914F
:1005D0002F912F938F939F9329E18EE39CE90197AD
:1005E000F1F72A95D1F700009F918F912F9147EC59
:1005F00040937A0040E640937C00409A0F9301E0DC
:100600005F985E985D985C9807FD5F9A06FD5E9A1C
:1006100005FD5D9A04FD5C9A2898299A2F938F9383
:100620009F9321E08EE39CE90197F1F72A95D1F79A
:1006300000009F918F912F9129985F985E985D9807
:100640005C9803FD5F9A02FD5E9A01FD5D9A00FDD4
:100650005C9A299A2F938F939F9321E08EE39CE9D4
:100660000197F1F72A95D1F700009F918F912F9173
:1006700029985F985E985D985C980F910F930DE4B0
:100680005F985E985D985C9807FD5F9A06FD5E9A9C
:1006900005FD5D9A04FD5C9A289A299A2F938F9301
:1006A0009F9321E08EE39CE90197F1F72A95D1F71A
:1006B00000009F918F912F9129985F985E985D9887
:1006C0005C9803FD5F9A02FD5E9A01FD5D9A00FD54
:1006D0005C9A299A2F938F939F9321E08EE39CE954
:1006E0000197F1F72A95D1F700009F918F912F91F3
:1006F00029985F985E985D985C980F910F930FE42E
:100700005F985E985D985C9807FD5F9A06FD5E9A1B
:1007100005FD5D9A04FD5C9A289A299A2F938F9380
:100720009F9321E08EE39CE90197F1F72A95D1F799
:1007300000009F918F912F9129985F985E985D9806
:100740005C9803FD5F9A02FD5E9A01FD5D9A00FDD3
:100750005C9A299A2F938F939F9321E08EE39CE9D3
:100760000197F1F72A95D1F700009F918F912F9172
:1007700029985F985E985D985C980F910F9309E4B3
:100780005F985E985D985C9807FD5F9A06FD5E9A9B
:1007900005FD5D9A04FD5C9A289A299A2F938F9300
:1007A0009F9321E08EE39CE90197F1F72A95D1F719
:1007B00000009F918F912F9129985F985E985D9886
:1007C0005C9803FD5F9A02FD5E9A01FD5D9A00FD53
:1007D0005C9A299A2F938F939F9321E08EE39CE953
:1007E0000197F1F72A95D1F700009F918F912F91F2
:1007F00029985F985E985D985C980F910F9303E538
:100800005F985E985D985C9807FD5F9A06FD5E9A1A
:1008100005FD5D9A04FD5C9A289A299A2F938F937F
:100820009F9321E08EE39CE90197F1F72A95D1F798
:1008300000009F918F912F9129985F985E985D9805
:100840005C9803FD5F9A02FD5E9A01FD5D9A00FDD2
:100850005C9A299A2F938F939F9321E08EE39CE9D2
:100860000197F1F72A95D1F700009F918F912F9171
:1008700029985F985E985D985C980F910F9304E5B6
:100880005F985E985D985C9807FD5F9A06FD5E9A9A
:1008900005FD5D9A04FD5C9A289A299A2F938F93FF
:1008A0009F9321E08EE39CE90197F1F72A95D1F718
:1008B00000009F918F912F9129985F985E985D9885
:1008C0005C9803FD5F9A02FD5E9A01FD5D9A00FD52
:1008D0005C9A299A2F938F939F9321E08EE39CE952
:1008E0000197F1F72A95D1F700009F918F912F91F1
:1008F00029985F985E985D985C980F910F9305E535
:100900005F985E985D985C9807FD5F9A06FD5E9A19
:1009100005FD5D9A04FD5C9A289A299A2F938F937E
:100920009F9321E08EE39CE90197F1F72A95D1F797
:1009300000009F918F912F9129985F985E985D9804
:100940005C9803FD5F9A02FD5E9A01FD5D9A00FDD1
:100950005C9A299A2F938F939F9321E08EE39CE9D1
:100960000197F1F72A95D1F700009F918F912F9170
:1009700029985F985E985D985C980F910F9302E5B7
:100980005F985E985D985C9807FD5F9A06FD5E9A99
:1009900005FD5D9A04FD5C9A289A299A2F938F93FE
:1009A0009F9321E08EE39CE90197F1F72A95D1F717
:1009B00000009F918F912F9129985F985E985D9884
:1009C0005C9803FD5F9A02FD5E9A01FD5D9A00FD51
:1009D0005C9A299A2F938F939F9321E08EE39CE951
:1009E0000197F1F72A95D1F700009F918F912F91F0
:1009F00029985F985E985D985C980F910F9305E435
:100A00005F985E985D985C9807FD5F9A06FD5E9A18
:100A100005FD5D9A04FD5C9A289A299A2F938F937D
:100A20009F9321E08EE39CE90197F1F72A95D1F796
:100A300000009F918F912F9129985F985E985D9803
:100A40005C9803FD5F9A02FD5E9A01FD5D9A00FDD0
:100A50005C9A299A2F938F939F9321E08EE39CE9D0
:100A60000197F1F72A95D1F700009F918F912F916F
:100A700029985F985E985D985C980F910F9300E2BB
:100A80005F985E985D985C9807FD5F9A06FD5E9A98
:100A900005FD5D9A04FD5C9A289A299A2F938F93FD
:100AA0009F9321E08EE39CE90197F1F72A95D1F716
:100AB00000009F918F912F9129985F985E985D9883
:100AC0005C9803FD5F9A02FD5E9A01FD5D9A00FD50
:100AD0005C9A299A2F938F939F9321E08EE39CE950
:100AE0000197F1F72A95D1F700009F918F912F91EF
:100AF00029985F985E985D985C980F910F930CE42D
:100B00005F985E985D985C9807FD5F9A06FD5E9A17
:100B100005FD5D9A04FD5C9A289A299A2F938F937C
:100B20009F9321E08EE39CE90197F1F72A95D1F795
:100B300000009F918F912F9129985F985E985D9802
:100B40005C9803FD5F9A02FD5E9A01FD5D9A00FDCF
:100B50005C9A299A2F938F939F9321E08EE39CE9CF
:100B60000197F1F72A95D1F700009F918F912F916E
:100B700029985F985E985D985C980F910F9305E4B3
:100B80005F985E985D985C9807FD5F9A06FD5E9A97
:100B900005FD5D9A04FD5C9A289A299A2F938F93FC
:100BA0009F9321E08EE39CE90197F1F72A95D1F715
:100BB00000009F918F912F9129985F985E985D9882
:100BC0005C9803FD5F9A02FD5E9A01FD5D9A00FD4F
:100BD0005C9A299A2F938F939F9321E08EE39CE94F
:100BE0000197F1F72A95D1F700009F918F912F91EE
:100BF00029985F985E985D985C980F910F9306E531
:100C00005F985E985D985C9807FD5F9A06FD5E9A16
:100C100005FD5D9A04FD5C9A289A299A2F938F937B
:100C20009F9321E08EE39CE90197F1F72A95D1F794
:100C300000009F918F912F9129985F985E985D9801
:100C40005C9803FD5F9A02FD5E9A01FD5D9A00FDCE
:100C50005C9A299A2F938F939F9321E08EE39CE9CE
:100C60000197F1F72A95D1F700009F918F912F916D
:100C700029985F985E985D985C980F910F9305E4B2
:100C80005F985E985D985C9807FD5F9A06FD5E9A96
:100C900005FD5D9A04FD5C9A289A299A2F938F93FB
:100CA0009F9321E08EE39CE90197F1F72A95D1F714
:100CB00000009F918F912F9129985F985E985D9881
:100CC0005C9803FD5F9A02FD5E9A01FD5D9A00FD4E
:100CD0005C9A299A2F938F939F9321E08EE39CE94E
:100CE0000197F1F72A95D1F700009F918F912F91ED
:100CF00029985F985E985D985C980F910F930CE42B
:100D00005F985E985D985C9807FD5F9A06FD5E9A15
:100D100005FD5D9A04FD5C9A289A299A2F938F937A
:100D20009F9321E08EE39CE90197F1F72A95D1F793
:100D300000009F918F912F9129985F985E985D9800
:100D40005C9803FD5F9A02FD5E9A01FD5D9A00FDCD
:100D50005C9A299A2F938F939F9321E08EE39CE9CD
:100D60000197F1F72A95D1F700009F918F912F916C
:100D700029985F985E985D985C980F910F9300ECAE
:100D80005F985E985D985C9807FD5F9A06FD5E9A95
:100D900005FD5D9A04FD5C9A2898299A2F938F93FC
:100DA0009F9321E08EE39CE90197F1F72A95D1F713
:100DB00000009F918F912F9129985F985E985D9880
:100DC0005C9803FD5F9A02FD5E9A01FD5D9A00FD4D
:100DD0005C9A299A2F938F939F9321E08EE39CE94D
:100DE0000197F1F72A95D1F700009F918F912F91EC
:100DF00029985F985E985D985C980F9140917A0071
:100E0000406440937A0040917A0046FDFCCF4091C7
:100E10007800509179002F938F939F932AE08EE36F
:100E20009CE90197F1F72A95D1F700009F918F91E6
:100E30002F910091C00007FF03C00091C60001C0C0
:100E400000E0013429F0023471F1523064F500C041
:100E50000F930091C00005FFFCCF0CE40093C60087
:100E60000F912D9AEAE2F0E049E02F938F939F9340
:100E700029E18EE39CE90197F1F72A95D1F700006B
:100E80009F918F912F912F938F939F9329E18EE3C1
:100E90009CE90197F1F72A95D1F700009F918F9176
:100EA0002F910C947E070F930091C00005FFFCCF9B
:100EB00008E40093C6000F912D98E0E2F0E049E0CD
:100EC0002F938F939F9329E18EE39CE90197F1F78C
:100ED0002A95D1F700009F918F912F912F938F9397
:100EE0009F9329E18EE39CE90197F1F72A95D1F7C9
:100EF00000009F918F912F910C947E070F931F9369
:100F00004F9305914030D9F15F985E985D985C9859
:100F100007FD5F9A06FD5E9A05FD5D9A04FD5C9AE9
:100F2000289A299A2F938F939F9321E08EE39CE92F
:100F30000197F1F72A95D1F700009F918F912F919A
:100F400029985F985E985D985C9803FD5F9A02FD12
:100F50005E9A01FD5D9A00FD5C9A299A2F938F930A
:100F60009F9321E08EE39CE90197F1F72A95D1F751
:100F700000009F918F912F9129984A95C2CF0F938E
:100F80000CE05F985E985D985C9807FD5F9A06FD9F
:100F90005E9A05FD5D9A04FD5C9A2898299A2F9324
:100FA0008F939F9321E08EE39CE90197F1F72A95B7
:100FB000D1F700009F918F912F9129985F985E98AB
:100FC0005D985C9803FD5F9A02FD5E9A01FD5D9A53
:100FD00000FD5C9A299A2F938F939F9321E08EE3D3
:100FE0009CE90197F1F72A95D1F700009F918F9125
:100FF0002F9129985F985E985D985C980F914F911A
:101000001F910F912F938F939F9329E18EE39CE97A
:101010000197F1F72A95D1F700009F918F912F91B9
:101020002F938F939F9329E18EE39CE90197F1F72A
:101030002A95D1F700009F918F912F912F938F9335
:101040009F9329E18EE39CE90197F1F72A95D1F767
:1010500000009F918F912F912F938F939F9329E160
:101060008EE39CE90197F1F72A95D1F700009F9153
:101070008F912F912F938F939F9329E18EE39CE97A
:101080000197F1F72A95D1F700009F918F912F9149
:101090002F938F939F9329E18EE39CE90197F1F7BA
:1010A0002A95D1F700009F918F912F910C94FE0209
:00000001FF
